{
	"data": {
		"bytecode": {
			"linkReferences": {},
			"object": "608060405234801561001057600080fd5b50610307806100206000396000f3fe60806040526004361061002d5760003560e01c8063a33f8c2d1461006d578063cd94f921146100845761006b565b3661006b577f699e21c8b7091f6cb2dc2f2653d170e400fa469381b6b0441201d78664cbf34e346040518082815260200191505060405180910390a1005b005b34801561007957600080fd5b5061008261009b565b005b34801561009057600080fd5b506100996100ed565b005b3373ffffffffffffffffffffffffffffffffffffffff166108fc68056bc75e2d631000009081150290604051600060405180830381858888f193505050501580156100ea573d6000803e3d6000fd5b50565b6000479050670de0b6b3a764000081101561013e577fa9d2ec4224479e0f179623a560e493dcfb3351f8279c6221d853a97ff630ea19816040518082815260200191505060405180910390a16102ce565b69152d02c7e14af680000081101561022f57600066038d7ea4c68000820290503373ffffffffffffffffffffffffffffffffffffffff166108fc829081150290604051600060405180830381858888f193505050501580156101a4573d6000803e3d6000fd5b507ffb5786f1c0b0fe662ca8243bdab3121f8229519750705fcd649544d4fa5433b833604051808273ffffffffffffffffffffffffffffffffffffffff16815260200191505060405180910390a17f7d0b32d14035bcd8a90c7709b3d5e72bda9c5bf213164bb09f30edb90689361c826040518082815260200191505060405180910390a1506102cd565b3373ffffffffffffffffffffffffffffffffffffffff166108fc68056bc75e2d631000009081150290604051600060405180830381858888f1935050505015801561027e573d6000803e3d6000fd5b507ffb5786f1c0b0fe662ca8243bdab3121f8229519750705fcd649544d4fa5433b833604051808273ffffffffffffffffffffffffffffffffffffffff16815260200191505060405180910390a15b5b5056fea264697066735822122098c5e2448a8eef21619f7652ed3ccd728e90040b3b14c4f77ce097634b54dacd64736f6c634300060c0033",
			"opcodes": "PUSH1 0x80 PUSH1 0x40 MSTORE CALLVALUE DUP1 ISZERO PUSH2 0x10 JUMPI PUSH1 0x0 DUP1 REVERT JUMPDEST POP PUSH2 0x307 DUP1 PUSH2 0x20 PUSH1 0x0 CODECOPY PUSH1 0x0 RETURN INVALID PUSH1 0x80 PUSH1 0x40 MSTORE PUSH1 0x4 CALLDATASIZE LT PUSH2 0x2D JUMPI PUSH1 0x0 CALLDATALOAD PUSH1 0xE0 SHR DUP1 PUSH4 0xA33F8C2D EQ PUSH2 0x6D JUMPI DUP1 PUSH4 0xCD94F921 EQ PUSH2 0x84 JUMPI PUSH2 0x6B JUMP JUMPDEST CALLDATASIZE PUSH2 0x6B JUMPI PUSH32 0x699E21C8B7091F6CB2DC2F2653D170E400FA469381B6B0441201D78664CBF34E CALLVALUE PUSH1 0x40 MLOAD DUP1 DUP3 DUP2 MSTORE PUSH1 0x20 ADD SWAP2 POP POP PUSH1 0x40 MLOAD DUP1 SWAP2 SUB SWAP1 LOG1 STOP JUMPDEST STOP JUMPDEST CALLVALUE DUP1 ISZERO PUSH2 0x79 JUMPI PUSH1 0x0 DUP1 REVERT JUMPDEST POP PUSH2 0x82 PUSH2 0x9B JUMP JUMPDEST STOP JUMPDEST CALLVALUE DUP1 ISZERO PUSH2 0x90 JUMPI PUSH1 0x0 DUP1 REVERT JUMPDEST POP PUSH2 0x99 PUSH2 0xED JUMP JUMPDEST STOP JUMPDEST CALLER PUSH20 0xFFFFFFFFFFFFFFFFFFFFFFFFFFFFFFFFFFFFFFFF AND PUSH2 0x8FC PUSH9 0x56BC75E2D63100000 SWAP1 DUP2 ISZERO MUL SWAP1 PUSH1 0x40 MLOAD PUSH1 0x0 PUSH1 0x40 MLOAD DUP1 DUP4 SUB DUP2 DUP6 DUP9 DUP9 CALL SWAP4 POP POP POP POP ISZERO DUP1 ISZERO PUSH2 0xEA JUMPI RETURNDATASIZE PUSH1 0x0 DUP1 RETURNDATACOPY RETURNDATASIZE PUSH1 0x0 REVERT JUMPDEST POP JUMP JUMPDEST PUSH1 0x0 SELFBALANCE SWAP1 POP PUSH8 0xDE0B6B3A7640000 DUP2 LT ISZERO PUSH2 0x13E JUMPI PUSH32 0xA9D2EC4224479E0F179623A560E493DCFB3351F8279C6221D853A97FF630EA19 DUP2 PUSH1 0x40 MLOAD DUP1 DUP3 DUP2 MSTORE PUSH1 0x20 ADD SWAP2 POP POP PUSH1 0x40 MLOAD DUP1 SWAP2 SUB SWAP1 LOG1 PUSH2 0x2CE JUMP JUMPDEST PUSH10 0x152D02C7E14AF6800000 DUP2 LT ISZERO PUSH2 0x22F JUMPI PUSH1 0x0 PUSH7 0x38D7EA4C68000 DUP3 MUL SWAP1 POP CALLER PUSH20 0xFFFFFFFFFFFFFFFFFFFFFFFFFFFFFFFFFFFFFFFF AND PUSH2 0x8FC DUP3 SWAP1 DUP2 ISZERO MUL SWAP1 PUSH1 0x40 MLOAD PUSH1 0x0 PUSH1 0x40 MLOAD DUP1 DUP4 SUB DUP2 DUP6 DUP9 DUP9 CALL SWAP4 POP POP POP POP ISZERO DUP1 ISZERO PUSH2 0x1A4 JUMPI RETURNDATASIZE PUSH1 0x0 DUP1 RETURNDATACOPY RETURNDATASIZE PUSH1 0x0 REVERT JUMPDEST POP PUSH32 0xFB5786F1C0B0FE662CA8243BDAB3121F8229519750705FCD649544D4FA5433B8 CALLER PUSH1 0x40 MLOAD DUP1 DUP3 PUSH20 0xFFFFFFFFFFFFFFFFFFFFFFFFFFFFFFFFFFFFFFFF AND DUP2 MSTORE PUSH1 0x20 ADD SWAP2 POP POP PUSH1 0x40 MLOAD DUP1 SWAP2 SUB SWAP1 LOG1 PUSH32 0x7D0B32D14035BCD8A90C7709B3D5E72BDA9C5BF213164BB09F30EDB90689361C DUP3 PUSH1 0x40 MLOAD DUP1 DUP3 DUP2 MSTORE PUSH1 0x20 ADD SWAP2 POP POP PUSH1 0x40 MLOAD DUP1 SWAP2 SUB SWAP1 LOG1 POP PUSH2 0x2CD JUMP JUMPDEST CALLER PUSH20 0xFFFFFFFFFFFFFFFFFFFFFFFFFFFFFFFFFFFFFFFF AND PUSH2 0x8FC PUSH9 0x56BC75E2D63100000 SWAP1 DUP2 ISZERO MUL SWAP1 PUSH1 0x40 MLOAD PUSH1 0x0 PUSH1 0x40 MLOAD DUP1 DUP4 SUB DUP2 DUP6 DUP9 DUP9 CALL SWAP4 POP POP POP POP ISZERO DUP1 ISZERO PUSH2 0x27E JUMPI RETURNDATASIZE PUSH1 0x0 DUP1 RETURNDATACOPY RETURNDATASIZE PUSH1 0x0 REVERT JUMPDEST POP PUSH32 0xFB5786F1C0B0FE662CA8243BDAB3121F8229519750705FCD649544D4FA5433B8 CALLER PUSH1 0x40 MLOAD DUP1 DUP3 PUSH20 0xFFFFFFFFFFFFFFFFFFFFFFFFFFFFFFFFFFFFFFFF AND DUP2 MSTORE PUSH1 0x20 ADD SWAP2 POP POP PUSH1 0x40 MLOAD DUP1 SWAP2 SUB SWAP1 LOG1 JUMPDEST JUMPDEST POP JUMP INVALID LOG2 PUSH5 0x6970667358 0x22 SLT KECCAK256 SWAP9 0xC5 0xE2 DIFFICULTY DUP11 DUP15 0xEF 0x21 PUSH2 0x9F76 MSTORE 0xED EXTCODECOPY 0xCD PUSH19 0x8E90040B3B14C4F77CE097634B54DACD64736F PUSH13 0x634300060C0033000000000000 "
		},
		"gasEstimates": {
			"creation": {
				"codeDepositCost": "155000",
				"executionCost": "202",
				"totalCost": "155202"
			},
			"external": {
				"": "107",
				"giveMeEther()": "infinite",
				"giveMeEtherSimple()": "infinite"
			}
		},
		"methodIdentifiers": {
			"giveMeEther()": "cd94f921",
			"giveMeEtherSimple()": "a33f8c2d"
		}
	},
	"abi": [
		{
			"anonymous": false,
			"inputs": [
				{
					"indexed": false,
					"internalType": "address",
					"name": "patientAddress",
					"type": "address"
				}
			],
			"name": "etherGiven",
			"type": "event"
		},
		{
			"anonymous": false,
			"inputs": [
				{
					"indexed": false,
					"internalType": "uint256",
					"name": "etherRemaining",
					"type": "uint256"
				}
			],
			"name": "etherMininum",
			"type": "event"
		},
		{
			"anonymous": false,
			"inputs": [
				{
					"indexed": false,
					"internalType": "uint256",
					"name": "etherRemaining",
					"type": "uint256"
				}
			],
			"name": "etherOutOfStock",
			"type": "event"
		},
		{
			"anonymous": false,
			"inputs": [
				{
					"indexed": false,
					"internalType": "uint256",
					"name": "amount",
					"type": "uint256"
				}
			],
			"name": "etherReceived",
			"type": "event"
		},
		{
			"stateMutability": "payable",
			"type": "fallback"
		},
		{
			"inputs": [],
			"name": "giveMeEther",
			"outputs": [],
			"stateMutability": "nonpayable",
			"type": "function"
		},
		{
			"inputs": [],
			"name": "giveMeEtherSimple",
			"outputs": [],
			"stateMutability": "nonpayable",
			"type": "function"
		},
		{
			"stateMutability": "payable",
			"type": "receive"
		}
	]
}