{
	"data": {
		"bytecode": {
			"linkReferences": {},
			"object": "608060405234801561001057600080fd5b50610293806100206000396000f3fe6080604052600436106100225760003560e01c8063cd94f9211461006257610060565b36610060577f699e21c8b7091f6cb2dc2f2653d170e400fa469381b6b0441201d78664cbf34e346040518082815260200191505060405180910390a1005b005b34801561006e57600080fd5b50610077610079565b005b6000479050670de0b6b3a76400008110156100ca577fa9d2ec4224479e0f179623a560e493dcfb3351f8279c6221d853a97ff630ea19816040518082815260200191505060405180910390a161025a565b69152d02c7e14af68000008110156101bb57600066038d7ea4c68000820290503373ffffffffffffffffffffffffffffffffffffffff166108fc829081150290604051600060405180830381858888f19350505050158015610130573d6000803e3d6000fd5b507ffb5786f1c0b0fe662ca8243bdab3121f8229519750705fcd649544d4fa5433b833604051808273ffffffffffffffffffffffffffffffffffffffff16815260200191505060405180910390a17f7d0b32d14035bcd8a90c7709b3d5e72bda9c5bf213164bb09f30edb90689361c826040518082815260200191505060405180910390a150610259565b3373ffffffffffffffffffffffffffffffffffffffff166108fc68056bc75e2d631000009081150290604051600060405180830381858888f1935050505015801561020a573d6000803e3d6000fd5b507ffb5786f1c0b0fe662ca8243bdab3121f8229519750705fcd649544d4fa5433b833604051808273ffffffffffffffffffffffffffffffffffffffff16815260200191505060405180910390a15b5b5056fea2646970667358221220b788f7b4de08d0c8640bff7be965a0f7cb63c8754d6e08f22d93d5ebf2107c2f64736f6c634300060c0033",
			"opcodes": "PUSH1 0x80 PUSH1 0x40 MSTORE CALLVALUE DUP1 ISZERO PUSH2 0x10 JUMPI PUSH1 0x0 DUP1 REVERT JUMPDEST POP PUSH2 0x293 DUP1 PUSH2 0x20 PUSH1 0x0 CODECOPY PUSH1 0x0 RETURN INVALID PUSH1 0x80 PUSH1 0x40 MSTORE PUSH1 0x4 CALLDATASIZE LT PUSH2 0x22 JUMPI PUSH1 0x0 CALLDATALOAD PUSH1 0xE0 SHR DUP1 PUSH4 0xCD94F921 EQ PUSH2 0x62 JUMPI PUSH2 0x60 JUMP JUMPDEST CALLDATASIZE PUSH2 0x60 JUMPI PUSH32 0x699E21C8B7091F6CB2DC2F2653D170E400FA469381B6B0441201D78664CBF34E CALLVALUE PUSH1 0x40 MLOAD DUP1 DUP3 DUP2 MSTORE PUSH1 0x20 ADD SWAP2 POP POP PUSH1 0x40 MLOAD DUP1 SWAP2 SUB SWAP1 LOG1 STOP JUMPDEST STOP JUMPDEST CALLVALUE DUP1 ISZERO PUSH2 0x6E JUMPI PUSH1 0x0 DUP1 REVERT JUMPDEST POP PUSH2 0x77 PUSH2 0x79 JUMP JUMPDEST STOP JUMPDEST PUSH1 0x0 SELFBALANCE SWAP1 POP PUSH8 0xDE0B6B3A7640000 DUP2 LT ISZERO PUSH2 0xCA JUMPI PUSH32 0xA9D2EC4224479E0F179623A560E493DCFB3351F8279C6221D853A97FF630EA19 DUP2 PUSH1 0x40 MLOAD DUP1 DUP3 DUP2 MSTORE PUSH1 0x20 ADD SWAP2 POP POP PUSH1 0x40 MLOAD DUP1 SWAP2 SUB SWAP1 LOG1 PUSH2 0x25A JUMP JUMPDEST PUSH10 0x152D02C7E14AF6800000 DUP2 LT ISZERO PUSH2 0x1BB JUMPI PUSH1 0x0 PUSH7 0x38D7EA4C68000 DUP3 MUL SWAP1 POP CALLER PUSH20 0xFFFFFFFFFFFFFFFFFFFFFFFFFFFFFFFFFFFFFFFF AND PUSH2 0x8FC DUP3 SWAP1 DUP2 ISZERO MUL SWAP1 PUSH1 0x40 MLOAD PUSH1 0x0 PUSH1 0x40 MLOAD DUP1 DUP4 SUB DUP2 DUP6 DUP9 DUP9 CALL SWAP4 POP POP POP POP ISZERO DUP1 ISZERO PUSH2 0x130 JUMPI RETURNDATASIZE PUSH1 0x0 DUP1 RETURNDATACOPY RETURNDATASIZE PUSH1 0x0 REVERT JUMPDEST POP PUSH32 0xFB5786F1C0B0FE662CA8243BDAB3121F8229519750705FCD649544D4FA5433B8 CALLER PUSH1 0x40 MLOAD DUP1 DUP3 PUSH20 0xFFFFFFFFFFFFFFFFFFFFFFFFFFFFFFFFFFFFFFFF AND DUP2 MSTORE PUSH1 0x20 ADD SWAP2 POP POP PUSH1 0x40 MLOAD DUP1 SWAP2 SUB SWAP1 LOG1 PUSH32 0x7D0B32D14035BCD8A90C7709B3D5E72BDA9C5BF213164BB09F30EDB90689361C DUP3 PUSH1 0x40 MLOAD DUP1 DUP3 DUP2 MSTORE PUSH1 0x20 ADD SWAP2 POP POP PUSH1 0x40 MLOAD DUP1 SWAP2 SUB SWAP1 LOG1 POP PUSH2 0x259 JUMP JUMPDEST CALLER PUSH20 0xFFFFFFFFFFFFFFFFFFFFFFFFFFFFFFFFFFFFFFFF AND PUSH2 0x8FC PUSH9 0x56BC75E2D63100000 SWAP1 DUP2 ISZERO MUL SWAP1 PUSH1 0x40 MLOAD PUSH1 0x0 PUSH1 0x40 MLOAD DUP1 DUP4 SUB DUP2 DUP6 DUP9 DUP9 CALL SWAP4 POP POP POP POP ISZERO DUP1 ISZERO PUSH2 0x20A JUMPI RETURNDATASIZE PUSH1 0x0 DUP1 RETURNDATACOPY RETURNDATASIZE PUSH1 0x0 REVERT JUMPDEST POP PUSH32 0xFB5786F1C0B0FE662CA8243BDAB3121F8229519750705FCD649544D4FA5433B8 CALLER PUSH1 0x40 MLOAD DUP1 DUP3 PUSH20 0xFFFFFFFFFFFFFFFFFFFFFFFFFFFFFFFFFFFFFFFF AND DUP2 MSTORE PUSH1 0x20 ADD SWAP2 POP POP PUSH1 0x40 MLOAD DUP1 SWAP2 SUB SWAP1 LOG1 JUMPDEST JUMPDEST POP JUMP INVALID LOG2 PUSH5 0x6970667358 0x22 SLT KECCAK256 0xB7 DUP9 0xF7 0xB4 0xDE ADDMOD 0xD0 0xC8 PUSH5 0xBFF7BE965 LOG0 0xF7 0xCB PUSH4 0xC8754D6E ADDMOD CALLCODE 0x2D SWAP4 0xD5 0xEB CALLCODE LT PUSH29 0x2F64736F6C634300060C00330000000000000000000000000000000000 "
		},
		"gasEstimates": {
			"creation": {
				"codeDepositCost": "131800",
				"executionCost": "177",
				"totalCost": "131977"
			},
			"external": {
				"": "85",
				"giveMeEther()": "infinite"
			}
		},
		"methodIdentifiers": {
			"giveMeEther()": "cd94f921"
		}
	},
	"abi": [
		{
			"anonymous": false,
			"inputs": [
				{
					"indexed": false,
					"internalType": "address",
					"name": "patientAddress",
					"type": "address"
				}
			],
			"name": "etherGiven",
			"type": "event"
		},
		{
			"anonymous": false,
			"inputs": [
				{
					"indexed": false,
					"internalType": "uint256",
					"name": "etherRemaining",
					"type": "uint256"
				}
			],
			"name": "etherMininum",
			"type": "event"
		},
		{
			"anonymous": false,
			"inputs": [
				{
					"indexed": false,
					"internalType": "uint256",
					"name": "amount",
					"type": "uint256"
				}
			],
			"name": "etherOutOfStock",
			"type": "event"
		},
		{
			"anonymous": false,
			"inputs": [
				{
					"indexed": false,
					"internalType": "uint256",
					"name": "amount",
					"type": "uint256"
				}
			],
			"name": "etherReceived",
			"type": "event"
		},
		{
			"stateMutability": "payable",
			"type": "fallback"
		},
		{
			"inputs": [],
			"name": "giveMeEther",
			"outputs": [],
			"stateMutability": "nonpayable",
			"type": "function"
		},
		{
			"stateMutability": "payable",
			"type": "receive"
		}
	]
}